{
  "_format": "hh-sol-artifact-1",
  "contractName": "GameV2",
  "sourceName": "contracts/GameV2.sol",
  "abi": [
    {
      "inputs": [
        {
          "internalType": "uint256",
          "name": "_id",
          "type": "uint256"
        },
        {
          "internalType": "address",
          "name": "_player1",
          "type": "address"
        }
      ],
      "stateMutability": "nonpayable",
      "type": "constructor"
    },
    {
      "inputs": [
        {
          "internalType": "uint256",
          "name": "",
          "type": "uint256"
        },
        {
          "internalType": "uint256",
          "name": "",
          "type": "uint256"
        }
      ],
      "name": "board",
      "outputs": [
        {
          "internalType": "address",
          "name": "",
          "type": "address"
        }
      ],
      "stateMutability": "view",
      "type": "function"
    },
    {
      "inputs": [],
      "name": "getBoard",
      "outputs": [
        {
          "internalType": "address[19][19]",
          "name": "",
          "type": "address[19][19]"
        }
      ],
      "stateMutability": "view",
      "type": "function"
    },
    {
      "inputs": [],
      "name": "id",
      "outputs": [
        {
          "internalType": "uint256",
          "name": "",
          "type": "uint256"
        }
      ],
      "stateMutability": "view",
      "type": "function"
    },
    {
      "inputs": [],
      "name": "openGame",
      "outputs": [],
      "stateMutability": "nonpayable",
      "type": "function"
    },
    {
      "inputs": [
        {
          "internalType": "uint8",
          "name": "_x",
          "type": "uint8"
        },
        {
          "internalType": "uint8",
          "name": "_y",
          "type": "uint8"
        },
        {
          "internalType": "address",
          "name": "_player",
          "type": "address"
        }
      ],
      "name": "placeStone",
      "outputs": [],
      "stateMutability": "nonpayable",
      "type": "function"
    },
    {
      "inputs": [],
      "name": "player1",
      "outputs": [
        {
          "internalType": "address",
          "name": "",
          "type": "address"
        }
      ],
      "stateMutability": "view",
      "type": "function"
    },
    {
      "inputs": [],
      "name": "player2",
      "outputs": [
        {
          "internalType": "address",
          "name": "",
          "type": "address"
        }
      ],
      "stateMutability": "view",
      "type": "function"
    },
    {
      "inputs": [
        {
          "internalType": "address",
          "name": "_player2",
          "type": "address"
        }
      ],
      "name": "setPlayer2",
      "outputs": [],
      "stateMutability": "nonpayable",
      "type": "function"
    },
    {
      "inputs": [],
      "name": "state",
      "outputs": [
        {
          "internalType": "enum GameV2.State",
          "name": "",
          "type": "uint8"
        }
      ],
      "stateMutability": "view",
      "type": "function"
    },
    {
      "inputs": [],
      "name": "turn",
      "outputs": [
        {
          "internalType": "address",
          "name": "",
          "type": "address"
        }
      ],
      "stateMutability": "view",
      "type": "function"
    }
  ],
  "bytecode": "0x60806040523480156200001157600080fd5b506040516200192d3803806200192d8339818101604052810190620000379190620001c0565b816000819055508061016c60006101000a81548173ffffffffffffffffffffffffffffffffffffffff021916908373ffffffffffffffffffffffffffffffffffffffff16021790555061016c60009054906101000a900473ffffffffffffffffffffffffffffffffffffffff1661016b60006101000a81548173ffffffffffffffffffffffffffffffffffffffff021916908373ffffffffffffffffffffffffffffffffffffffff1602179055506000600160006101000a81548160ff021916908360038111156200010e576200010d62000207565b5b0217905550505062000236565b600080fd5b6000819050919050565b620001358162000120565b81146200014157600080fd5b50565b60008151905062000155816200012a565b92915050565b600073ffffffffffffffffffffffffffffffffffffffff82169050919050565b600062000188826200015b565b9050919050565b6200019a816200017b565b8114620001a657600080fd5b50565b600081519050620001ba816200018f565b92915050565b60008060408385031215620001da57620001d96200011b565b5b6000620001ea8582860162000144565b9250506020620001fd85828601620001a9565b9150509250929050565b7f4e487b7100000000000000000000000000000000000000000000000000000000600052602160045260246000fd5b6116e780620002466000396000f3fe608060405234801561001057600080fd5b506004361061009e5760003560e01c8063af640d0f11610066578063af640d0f14610149578063bb41ad3f14610167578063c19d93fb14610183578063d30895e4146101a1578063fa12d782146101bf5761009e565b80633264a34b146100a357806359a5f12d146100c157806373da64a0146100df5780638086a92a146100fb5780638b2999031461012b575b600080fd5b6100ab6101c9565b6040516100b89190610f1f565b60405180910390f35b6100c9610282565b6040516100d69190610f4a565b60405180910390f35b6100f960048036038101906100f49190610f96565b6102a9565b005b61011560048036038101906101109190610ff9565b6104b2565b6040516101229190610f4a565b60405180910390f35b6101336104fd565b6040516101409190610f4a565b60405180910390f35b610151610524565b60405161015e9190611048565b60405180910390f35b610181600480360381019061017c919061109c565b61052a565b005b61018b610943565b6040516101989190611166565b60405180910390f35b6101a9610956565b6040516101b69190610f4a565b60405180910390f35b6101c761097d565b005b6101d1610d54565b6002601380602002604051908101604052809291906000905b8282101561027957838260130201601380602002604051908101604052809291908260138015610265576020028201915b8160009054906101000a900473ffffffffffffffffffffffffffffffffffffffff1673ffffffffffffffffffffffffffffffffffffffff168152602001906001019080831161021b575b5050505050815260200190600101906101ea565b50505050905090565b61016d60009054906101000a900473ffffffffffffffffffffffffffffffffffffffff1681565b600160038111156102bd576102bc6110ef565b5b600160009054906101000a900460ff1660038111156102df576102de6110ef565b5b1461031f576040517f08c379a0000000000000000000000000000000000000000000000000000000008152600401610316906111de565b60405180910390fd5b600073ffffffffffffffffffffffffffffffffffffffff1661016d60009054906101000a900473ffffffffffffffffffffffffffffffffffffffff1673ffffffffffffffffffffffffffffffffffffffff16146103b1576040517f08c379a00000000000000000000000000000000000000000000000000000000081526004016103a89061124a565b60405180910390fd5b61016c60009054906101000a900473ffffffffffffffffffffffffffffffffffffffff1673ffffffffffffffffffffffffffffffffffffffff168173ffffffffffffffffffffffffffffffffffffffff1603610442576040517f08c379a0000000000000000000000000000000000000000000000000000000008152600401610439906112b6565b60405180910390fd5b8061016d60006101000a81548173ffffffffffffffffffffffffffffffffffffffff021916908373ffffffffffffffffffffffffffffffffffffffff1602179055506002600160006101000a81548160ff021916908360038111156104aa576104a96110ef565b5b021790555050565b600282601381106104c257600080fd5b6013020181601381106104d457600080fd5b016000915091509054906101000a900473ffffffffffffffffffffffffffffffffffffffff1681565b61016b60009054906101000a900473ffffffffffffffffffffffffffffffffffffffff1681565b60005481565b6002600381111561053e5761053d6110ef565b5b600160009054906101000a900460ff1660038111156105605761055f6110ef565b5b146105a0576040517f08c379a000000000000000000000000000000000000000000000000000000000815260040161059790611322565b60405180910390fd5b8073ffffffffffffffffffffffffffffffffffffffff1661016b60009054906101000a900473ffffffffffffffffffffffffffffffffffffffff1673ffffffffffffffffffffffffffffffffffffffff1614610631576040517f08c379a00000000000000000000000000000000000000000000000000000000081526004016106289061138e565b60405180910390fd5b60138360ff16108015610647575060138260ff16105b610686576040517f08c379a000000000000000000000000000000000000000000000000000000000815260040161067d906113fa565b60405180910390fd5b600073ffffffffffffffffffffffffffffffffffffffff1660028460ff16601381106106b5576106b461141a565b5b601302018360ff16601381106106ce576106cd61141a565b5b0160009054906101000a900473ffffffffffffffffffffffffffffffffffffffff1673ffffffffffffffffffffffffffffffffffffffff1614610746576040517f08c379a000000000000000000000000000000000000000000000000000000000815260040161073d90611495565b60405180910390fd5b8060028460ff166013811061075e5761075d61141a565b5b601302018360ff16601381106107775761077661141a565b5b0160006101000a81548173ffffffffffffffffffffffffffffffffffffffff021916908373ffffffffffffffffffffffffffffffffffffffff1602179055506107bf81610ab0565b156107f4576003600160006101000a81548160ff021916908360038111156107ea576107e96110ef565b5b021790555061093e565b61016c60009054906101000a900473ffffffffffffffffffffffffffffffffffffffff1673ffffffffffffffffffffffffffffffffffffffff1661016b60009054906101000a900473ffffffffffffffffffffffffffffffffffffffff1673ffffffffffffffffffffffffffffffffffffffff16036108d75761016d60009054906101000a900473ffffffffffffffffffffffffffffffffffffffff1661016b60006101000a81548173ffffffffffffffffffffffffffffffffffffffff021916908373ffffffffffffffffffffffffffffffffffffffff16021790555061093d565b61016c60009054906101000a900473ffffffffffffffffffffffffffffffffffffffff1661016b60006101000a81548173ffffffffffffffffffffffffffffffffffffffff021916908373ffffffffffffffffffffffffffffffffffffffff1602179055505b5b505050565b600160009054906101000a900460ff1681565b61016c60009054906101000a900473ffffffffffffffffffffffffffffffffffffffff1681565b61016c60009054906101000a900473ffffffffffffffffffffffffffffffffffffffff1673ffffffffffffffffffffffffffffffffffffffff163373ffffffffffffffffffffffffffffffffffffffff1614610a0e576040517f08c379a0000000000000000000000000000000000000000000000000000000008152600401610a0590611501565b60405180910390fd5b60006003811115610a2257610a216110ef565b5b600160009054906101000a900460ff166003811115610a4457610a436110ef565b5b14610a84576040517f08c379a0000000000000000000000000000000000000000000000000000000008152600401610a7b9061156d565b60405180910390fd5b60018060006101000a81548160ff02191690836003811115610aa957610aa86110ef565b5b0217905550565b600080600090505b60138160ff161015610bfe5760005b60138160ff161015610bea578373ffffffffffffffffffffffffffffffffffffffff1660028360ff1660138110610b0157610b0061141a565b5b601302018260ff1660138110610b1a57610b1961141a565b5b0160009054906101000a900473ffffffffffffffffffffffffffffffffffffffff1673ffffffffffffffffffffffffffffffffffffffff1603610bd757610b6682826001600088610c09565b80610b7c5750610b7b82826000600188610c09565b5b80610b915750610b90828260018088610c09565b5b80610bc65750610bc5828260017fffffffffffffffffffffffffffffffffffffffffffffffffffffffffffffffff88610c09565b5b15610bd657600192505050610c04565b5b8080610be2906115bc565b915050610ac7565b508080610bf6906115bc565b915050610ab8565b50600090505b919050565b600080600190506000600190505b60048160000b13610d405760008682610c3091906115f2565b89610c3b919061162f565b905060008683610c4b91906115f2565b89610c56919061162f565b905060008260000b1280610c6d575060128260000b135b80610c7b575060008160000b125b80610c89575060128160000b135b80610d1157508573ffffffffffffffffffffffffffffffffffffffff1660028360ff1660138110610cbd57610cbc61141a565b5b601302018260ff1660138110610cd657610cd561141a565b5b0160009054906101000a900473ffffffffffffffffffffffffffffffffffffffff1673ffffffffffffffffffffffffffffffffffffffff1614155b15610d1d575050610d40565b8380610d28906115bc565b94505050508080610d3890611688565b915050610c17565b5060058160ff161491505095945050505050565b6040518061026001604052806013905b610d6c610d82565b815260200190600190039081610d645790505090565b604051806102600160405280601390602082028036833780820191505090505090565b600060139050919050565b600081905092915050565b6000819050919050565b600060139050919050565b600081905092915050565b6000819050919050565b600073ffffffffffffffffffffffffffffffffffffffff82169050919050565b6000610e1082610de5565b9050919050565b610e2081610e05565b82525050565b6000610e328383610e17565b60208301905092915050565b6000602082019050919050565b610e5481610dc5565b610e5e8184610dd0565b9250610e6982610ddb565b8060005b83811015610e9a578151610e818782610e26565b9650610e8c83610e3e565b925050600181019050610e6d565b505050505050565b6000610eae8383610e4b565b6102608301905092915050565b6000602082019050919050565b610ed181610da5565b610edb8184610db0565b9250610ee682610dbb565b8060005b83811015610f17578151610efe8782610ea2565b9650610f0983610ebb565b925050600181019050610eea565b505050505050565b6000612d2082019050610f356000830184610ec8565b92915050565b610f4481610e05565b82525050565b6000602082019050610f5f6000830184610f3b565b92915050565b600080fd5b610f7381610e05565b8114610f7e57600080fd5b50565b600081359050610f9081610f6a565b92915050565b600060208284031215610fac57610fab610f65565b5b6000610fba84828501610f81565b91505092915050565b6000819050919050565b610fd681610fc3565b8114610fe157600080fd5b50565b600081359050610ff381610fcd565b92915050565b600080604083850312156110105761100f610f65565b5b600061101e85828601610fe4565b925050602061102f85828601610fe4565b9150509250929050565b61104281610fc3565b82525050565b600060208201905061105d6000830184611039565b92915050565b600060ff82169050919050565b61107981611063565b811461108457600080fd5b50565b60008135905061109681611070565b92915050565b6000806000606084860312156110b5576110b4610f65565b5b60006110c386828701611087565b93505060206110d486828701611087565b92505060406110e586828701610f81565b9150509250925092565b7f4e487b7100000000000000000000000000000000000000000000000000000000600052602160045260246000fd5b6004811061112f5761112e6110ef565b5b50565b60008190506111408261111e565b919050565b600061115082611132565b9050919050565b61116081611145565b82525050565b600060208201905061117b6000830184611157565b92915050565b600082825260208201905092915050565b7f47616d65206973206e6f74204f70656e696e6700000000000000000000000000600082015250565b60006111c8601383611181565b91506111d382611192565b602082019050919050565b600060208201905081810360008301526111f7816111bb565b9050919050565b7f506c617965723220697320616c72656164792073657400000000000000000000600082015250565b6000611234601683611181565b915061123f826111fe565b602082019050919050565b6000602082019050818103600083015261126381611227565b9050919050565b7f506c61796572312063616e6e6f7420626520506c617965723200000000000000600082015250565b60006112a0601983611181565b91506112ab8261126a565b602082019050919050565b600060208201905081810360008301526112cf81611293565b9050919050565b7f47616d65206973206e6f7420706c6179696e6700000000000000000000000000600082015250565b600061130c601383611181565b9150611317826112d6565b602082019050919050565b6000602082019050818103600083015261133b816112ff565b9050919050565b7f4e6f7420796f7572207475726e00000000000000000000000000000000000000600082015250565b6000611378600d83611181565b915061138382611342565b602082019050919050565b600060208201905081810360008301526113a78161136b565b9050919050565b7f496e76616c696420636f6f7264696e6174657300000000000000000000000000600082015250565b60006113e4601383611181565b91506113ef826113ae565b602082019050919050565b60006020820190508181036000830152611413816113d7565b9050919050565b7f4e487b7100000000000000000000000000000000000000000000000000000000600052603260045260246000fd5b7f43656c6c20697320616c7265616479206f636375706965640000000000000000600082015250565b600061147f601883611181565b915061148a82611449565b602082019050919050565b600060208201905081810360008301526114ae81611472565b9050919050565b7f4e6f7420706c6179657231000000000000000000000000000000000000000000600082015250565b60006114eb600b83611181565b91506114f6826114b5565b602082019050919050565b6000602082019050818103600083015261151a816114de565b9050919050565b7f47616d65206973206e6f74204e6f6e6500000000000000000000000000000000600082015250565b6000611557601083611181565b915061156282611521565b602082019050919050565b600060208201905081810360008301526115868161154a565b9050919050565b7f4e487b7100000000000000000000000000000000000000000000000000000000600052601160045260246000fd5b60006115c782611063565b915060ff82036115da576115d961158d565b5b600182019050919050565b60008160000b9050919050565b60006115fd826115e5565b9150611608836115e5565b9250828202611616816115e5565b91508082146116285761162761158d565b5b5092915050565b600061163a826115e5565b9150611645836115e5565b925082820190507fffffffffffffffffffffffffffffffffffffffffffffffffffffffffffffff808112607f821317156116825761168161158d565b5b92915050565b6000611693826115e5565b9150607f82036116a6576116a561158d565b5b60018201905091905056fea2646970667358221220725d792417ca89815ad5a701824e5e4c9fd78fce4ecae589007a0d6a663971f364736f6c63430008130033",
  "linkReferences": {},
  "deployedLinkReferences": {}
}