{
  "_format": "hh-sol-artifact-1",
  "contractName": "GomokuV2",
  "sourceName": "contracts/GomokuV2.sol",
  "abi": [
    {
      "inputs": [],
      "stateMutability": "nonpayable",
      "type": "constructor"
    },
    {
      "anonymous": false,
      "inputs": [
        {
          "indexed": false,
          "internalType": "address",
          "name": "previousAdmin",
          "type": "address"
        },
        {
          "indexed": false,
          "internalType": "address",
          "name": "newAdmin",
          "type": "address"
        }
      ],
      "name": "AdminChanged",
      "type": "event"
    },
    {
      "anonymous": false,
      "inputs": [
        {
          "indexed": true,
          "internalType": "address",
          "name": "beacon",
          "type": "address"
        }
      ],
      "name": "BeaconUpgraded",
      "type": "event"
    },
    {
      "anonymous": false,
      "inputs": [
        {
          "indexed": false,
          "internalType": "uint8",
          "name": "version",
          "type": "uint8"
        }
      ],
      "name": "Initialized",
      "type": "event"
    },
    {
      "anonymous": false,
      "inputs": [
        {
          "indexed": true,
          "internalType": "address",
          "name": "previousOwner",
          "type": "address"
        },
        {
          "indexed": true,
          "internalType": "address",
          "name": "newOwner",
          "type": "address"
        }
      ],
      "name": "OwnershipTransferred",
      "type": "event"
    },
    {
      "anonymous": false,
      "inputs": [
        {
          "indexed": true,
          "internalType": "address",
          "name": "implementation",
          "type": "address"
        }
      ],
      "name": "Upgraded",
      "type": "event"
    },
    {
      "inputs": [],
      "name": "createGame",
      "outputs": [],
      "stateMutability": "nonpayable",
      "type": "function"
    },
    {
      "inputs": [],
      "name": "gameId",
      "outputs": [
        {
          "internalType": "uint256",
          "name": "",
          "type": "uint256"
        }
      ],
      "stateMutability": "view",
      "type": "function"
    },
    {
      "inputs": [
        {
          "internalType": "uint256",
          "name": "",
          "type": "uint256"
        }
      ],
      "name": "games",
      "outputs": [
        {
          "internalType": "address",
          "name": "",
          "type": "address"
        }
      ],
      "stateMutability": "view",
      "type": "function"
    },
    {
      "inputs": [],
      "name": "getGames",
      "outputs": [
        {
          "internalType": "address[]",
          "name": "",
          "type": "address[]"
        }
      ],
      "stateMutability": "view",
      "type": "function"
    },
    {
      "inputs": [],
      "name": "initialize",
      "outputs": [],
      "stateMutability": "nonpayable",
      "type": "function"
    },
    {
      "inputs": [],
      "name": "owner",
      "outputs": [
        {
          "internalType": "address",
          "name": "",
          "type": "address"
        }
      ],
      "stateMutability": "view",
      "type": "function"
    },
    {
      "inputs": [],
      "name": "proxiableUUID",
      "outputs": [
        {
          "internalType": "bytes32",
          "name": "",
          "type": "bytes32"
        }
      ],
      "stateMutability": "view",
      "type": "function"
    },
    {
      "inputs": [],
      "name": "renounceOwnership",
      "outputs": [],
      "stateMutability": "nonpayable",
      "type": "function"
    },
    {
      "inputs": [
        {
          "internalType": "address",
          "name": "newOwner",
          "type": "address"
        }
      ],
      "name": "transferOwnership",
      "outputs": [],
      "stateMutability": "nonpayable",
      "type": "function"
    },
    {
      "inputs": [
        {
          "internalType": "address",
          "name": "newImplementation",
          "type": "address"
        }
      ],
      "name": "upgradeTo",
      "outputs": [],
      "stateMutability": "nonpayable",
      "type": "function"
    },
    {
      "inputs": [
        {
          "internalType": "address",
          "name": "newImplementation",
          "type": "address"
        },
        {
          "internalType": "bytes",
          "name": "data",
          "type": "bytes"
        }
      ],
      "name": "upgradeToAndCall",
      "outputs": [],
      "stateMutability": "payable",
      "type": "function"
    }
  ],
  "bytecode": "0x60a06040523073ffffffffffffffffffffffffffffffffffffffff1660809073ffffffffffffffffffffffffffffffffffffffff168152503480156200004457600080fd5b50620000556200005b60201b60201c565b62000205565b600060019054906101000a900460ff1615620000ae576040517f08c379a0000000000000000000000000000000000000000000000000000000008152600401620000a590620001a8565b60405180910390fd5b60ff801660008054906101000a900460ff1660ff16146200011f5760ff6000806101000a81548160ff021916908360ff1602179055507f7f26b83ff96e1f2b6a682f133852f6798a09c465da95921460cefb384740249860ff604051620001169190620001e8565b60405180910390a15b565b600082825260208201905092915050565b7f496e697469616c697a61626c653a20636f6e747261637420697320696e69746960008201527f616c697a696e6700000000000000000000000000000000000000000000000000602082015250565b60006200019060278362000121565b91506200019d8262000132565b604082019050919050565b60006020820190508181036000830152620001c38162000181565b9050919050565b600060ff82169050919050565b620001e281620001ca565b82525050565b6000602082019050620001ff6000830184620001d7565b92915050565b6080516138846200023d600039600081816102b2015281816103430152818161044a015281816104db015261059401526138846000f3fe608060405260043610620000aa5760003560e01c80637255d729116200006d5780637255d729146200018b5780638129fc1c14620001a55780638da5cb5b14620001bf578063c04c594714620001ef578063d7c81b55146200021f578063f2fde38b146200024f57620000aa565b8063117a5b9014620000af5780633659cfe614620000f35780634f1ef286146200012157806352d1902d1462000141578063715018a61462000171575b600080fd5b348015620000bc57600080fd5b50620000db6004803603810190620000d59190620011e2565b6200027d565b604051620000ea919062001259565b60405180910390f35b3480156200010057600080fd5b506200011f6004803603810190620001199190620012a7565b620002b0565b005b6200013f60048036038101906200013991906200143b565b62000448565b005b3480156200014e57600080fd5b506200015962000590565b604051620001689190620014bc565b60405180910390f35b3480156200017e57600080fd5b50620001896200064c565b005b3480156200019857600080fd5b50620001a362000664565b005b348015620001b257600080fd5b50620001bd62000716565b005b348015620001cc57600080fd5b50620001d76200086c565b604051620001e6919062001259565b60405180910390f35b348015620001fc57600080fd5b506200020762000896565b604051620002169190620015a7565b60405180910390f35b3480156200022c57600080fd5b50620002376200099b565b604051620002469190620015dc565b60405180910390f35b3480156200025c57600080fd5b506200027b6004803603810190620002759190620012a7565b620009a1565b005b60ca6020528060005260406000206000915054906101000a900473ffffffffffffffffffffffffffffffffffffffff1681565b7f000000000000000000000000000000000000000000000000000000000000000073ffffffffffffffffffffffffffffffffffffffff163073ffffffffffffffffffffffffffffffffffffffff160362000341576040517f08c379a0000000000000000000000000000000000000000000000000000000008152600401620003389062001680565b60405180910390fd5b7f000000000000000000000000000000000000000000000000000000000000000073ffffffffffffffffffffffffffffffffffffffff166200038262000a2b565b73ffffffffffffffffffffffffffffffffffffffff1614620003db576040517f08c379a0000000000000000000000000000000000000000000000000000000008152600401620003d29062001718565b60405180910390fd5b620003e68162000a84565b6200044581600067ffffffffffffffff811115620004095762000408620012f4565b5b6040519080825280601f01601f1916602001820160405280156200043c5781602001600182028036833780820191505090505b50600062000a91565b50565b7f000000000000000000000000000000000000000000000000000000000000000073ffffffffffffffffffffffffffffffffffffffff163073ffffffffffffffffffffffffffffffffffffffff1603620004d9576040517f08c379a0000000000000000000000000000000000000000000000000000000008152600401620004d09062001680565b60405180910390fd5b7f000000000000000000000000000000000000000000000000000000000000000073ffffffffffffffffffffffffffffffffffffffff166200051a62000a2b565b73ffffffffffffffffffffffffffffffffffffffff161462000573576040517f08c379a00000000000000000000000000000000000000000000000000000000081526004016200056a9062001718565b60405180910390fd5b6200057e8262000a84565b6200058c8282600162000a91565b5050565b60007f000000000000000000000000000000000000000000000000000000000000000073ffffffffffffffffffffffffffffffffffffffff163073ffffffffffffffffffffffffffffffffffffffff161462000623576040517f08c379a00000000000000000000000000000000000000000000000000000000081526004016200061a90620017b0565b60405180910390fd5b7f360894a13ba1a3210667c828492db98dca3e2076cc3735a920a3ca505d382bbc60001b905090565b6200065662000c10565b62000662600062000c95565b565b600060c95433604051620006789062001185565b62000685929190620017d2565b604051809103906000f080158015620006a2573d6000803e3d6000fd5b5090508060ca600060c954815260200190815260200160002060006101000a81548173ffffffffffffffffffffffffffffffffffffffff021916908373ffffffffffffffffffffffffffffffffffffffff16021790555060c960008154809291906200070e906200182e565b919050555050565b60008060019054906101000a900460ff16159050808015620007485750600160008054906101000a900460ff1660ff16105b806200077957506200075a3062000d5b565b158015620007785750600160008054906101000a900460ff1660ff16145b5b620007bb576040517f08c379a0000000000000000000000000000000000000000000000000000000008152600401620007b290620018f1565b60405180910390fd5b60016000806101000a81548160ff021916908360ff1602179055508015620007f9576001600060016101000a81548160ff0219169083151502179055505b6200080362000d7e565b6200080d62000ddc565b8015620008695760008060016101000a81548160ff0219169083151502179055507f7f26b83ff96e1f2b6a682f133852f6798a09c465da95921460cefb384740249860016040516200086091906200196d565b60405180910390a15b50565b6000603360009054906101000a900473ffffffffffffffffffffffffffffffffffffffff16905090565b6060600060c95467ffffffffffffffff811115620008b957620008b8620012f4565b5b604051908082528060200260200182016040528015620008e85781602001602082028036833780820191505090505b50905060005b60c954811015620009935760ca600082815260200190815260200160002060009054906101000a900473ffffffffffffffffffffffffffffffffffffffff168282815181106200094357620009426200198a565b5b602002602001019073ffffffffffffffffffffffffffffffffffffffff16908173ffffffffffffffffffffffffffffffffffffffff168152505080806200098a906200182e565b915050620008ee565b508091505090565b60c95481565b620009ab62000c10565b600073ffffffffffffffffffffffffffffffffffffffff168173ffffffffffffffffffffffffffffffffffffffff160362000a1d576040517f08c379a000000000000000000000000000000000000000000000000000000000815260040162000a149062001a2f565b60405180910390fd5b62000a288162000c95565b50565b600062000a5b7f360894a13ba1a3210667c828492db98dca3e2076cc3735a920a3ca505d382bbc60001b62000e30565b60000160009054906101000a900473ffffffffffffffffffffffffffffffffffffffff16905090565b62000a8e62000c10565b50565b62000abf7f4910fdfa16fed3260ed0e7147f7cc6da11a60208b5b9406d12a635614ffd914360001b62000e3a565b60000160009054906101000a900460ff161562000ae75762000ae18362000e44565b62000c0b565b8273ffffffffffffffffffffffffffffffffffffffff166352d1902d6040518163ffffffff1660e01b8152600401602060405180830381865afa92505050801562000b5257506040513d601f19601f8201168201806040525081019062000b4f919062001a82565b60015b62000b94576040517f08c379a000000000000000000000000000000000000000000000000000000000815260040162000b8b9062001b2a565b60405180910390fd5b7f360894a13ba1a3210667c828492db98dca3e2076cc3735a920a3ca505d382bbc60001b811462000bfc576040517f08c379a000000000000000000000000000000000000000000000000000000000815260040162000bf39062001bc2565b60405180910390fd5b5062000c0a83838362000f04565b5b505050565b62000c1a62000f36565b73ffffffffffffffffffffffffffffffffffffffff1662000c3a6200086c565b73ffffffffffffffffffffffffffffffffffffffff161462000c93576040517f08c379a000000000000000000000000000000000000000000000000000000000815260040162000c8a9062001c34565b60405180910390fd5b565b6000603360009054906101000a900473ffffffffffffffffffffffffffffffffffffffff16905081603360006101000a81548173ffffffffffffffffffffffffffffffffffffffff021916908373ffffffffffffffffffffffffffffffffffffffff1602179055508173ffffffffffffffffffffffffffffffffffffffff168173ffffffffffffffffffffffffffffffffffffffff167f8be0079c531659141344cd1fd0a4f28419497f9722a3daafe3b4186f6b6457e060405160405180910390a35050565b6000808273ffffffffffffffffffffffffffffffffffffffff163b119050919050565b600060019054906101000a900460ff1662000dd0576040517f08c379a000000000000000000000000000000000000000000000000000000000815260040162000dc79062001ccc565b60405180910390fd5b62000dda62000f3e565b565b600060019054906101000a900460ff1662000e2e576040517f08c379a000000000000000000000000000000000000000000000000000000000815260040162000e259062001ccc565b60405180910390fd5b565b6000819050919050565b6000819050919050565b62000e4f8162000d5b565b62000e91576040517f08c379a000000000000000000000000000000000000000000000000000000000815260040162000e889062001d64565b60405180910390fd5b8062000ec07f360894a13ba1a3210667c828492db98dca3e2076cc3735a920a3ca505d382bbc60001b62000e30565b60000160006101000a81548173ffffffffffffffffffffffffffffffffffffffff021916908373ffffffffffffffffffffffffffffffffffffffff16021790555050565b62000f0f8362000fa6565b60008251118062000f1d5750805b1562000f315762000f2f838362000ff7565b505b505050565b600033905090565b600060019054906101000a900460ff1662000f90576040517f08c379a000000000000000000000000000000000000000000000000000000000815260040162000f879062001ccc565b60405180910390fd5b62000fa462000f9e62000f36565b62000c95565b565b62000fb18162000e44565b8073ffffffffffffffffffffffffffffffffffffffff167fbc7cd75a20ee27fd9adebab32041f755214dbc6bffa90cc0225b39da2e5c2d3b60405160405180910390a250565b60606200101f8383604051806060016040528060278152602001620038286027913962001027565b905092915050565b60606000808573ffffffffffffffffffffffffffffffffffffffff168560405162001053919062001dff565b600060405180830381855af49150503d806000811462001090576040519150601f19603f3d011682016040523d82523d6000602084013e62001095565b606091505b5091509150620010a886838387620010b3565b925050509392505050565b606083156200111d5760008351036200111457620010d18562000d5b565b62001113576040517f08c379a00000000000000000000000000000000000000000000000000000000081526004016200110a9062001e68565b60405180910390fd5b5b8290506200112a565b62001129838362001132565b5b949350505050565b600082511115620011465781518083602001fd5b806040517f08c379a00000000000000000000000000000000000000000000000000000000081526004016200117c919062001ed6565b60405180910390fd5b61192d8062001efb83390190565b6000604051905090565b600080fd5b600080fd5b6000819050919050565b620011bc81620011a7565b8114620011c857600080fd5b50565b600081359050620011dc81620011b1565b92915050565b600060208284031215620011fb57620011fa6200119d565b5b60006200120b84828501620011cb565b91505092915050565b600073ffffffffffffffffffffffffffffffffffffffff82169050919050565b6000620012418262001214565b9050919050565b620012538162001234565b82525050565b600060208201905062001270600083018462001248565b92915050565b620012818162001234565b81146200128d57600080fd5b50565b600081359050620012a18162001276565b92915050565b600060208284031215620012c057620012bf6200119d565b5b6000620012d08482850162001290565b91505092915050565b600080fd5b600080fd5b6000601f19601f8301169050919050565b7f4e487b7100000000000000000000000000000000000000000000000000000000600052604160045260246000fd5b6200132e82620012e3565b810181811067ffffffffffffffff8211171562001350576200134f620012f4565b5b80604052505050565b60006200136562001193565b905062001373828262001323565b919050565b600067ffffffffffffffff821115620013965762001395620012f4565b5b620013a182620012e3565b9050602081019050919050565b82818337600083830152505050565b6000620013d4620013ce8462001378565b62001359565b905082815260208101848484011115620013f357620013f2620012de565b5b62001400848285620013ae565b509392505050565b600082601f83011262001420576200141f620012d9565b5b813562001432848260208601620013bd565b91505092915050565b600080604083850312156200145557620014546200119d565b5b6000620014658582860162001290565b925050602083013567ffffffffffffffff811115620014895762001488620011a2565b5b620014978582860162001408565b9150509250929050565b6000819050919050565b620014b681620014a1565b82525050565b6000602082019050620014d36000830184620014ab565b92915050565b600081519050919050565b600082825260208201905092915050565b6000819050602082019050919050565b620015108162001234565b82525050565b600062001524838362001505565b60208301905092915050565b6000602082019050919050565b60006200154a82620014d9565b620015568185620014e4565b93506200156383620014f5565b8060005b838110156200159a5781516200157e888262001516565b97506200158b8362001530565b92505060018101905062001567565b5085935050505092915050565b60006020820190508181036000830152620015c381846200153d565b905092915050565b620015d681620011a7565b82525050565b6000602082019050620015f36000830184620015cb565b92915050565b600082825260208201905092915050565b7f46756e6374696f6e206d7573742062652063616c6c6564207468726f7567682060008201527f64656c656761746563616c6c0000000000000000000000000000000000000000602082015250565b600062001668602c83620015f9565b915062001675826200160a565b604082019050919050565b600060208201905081810360008301526200169b8162001659565b9050919050565b7f46756e6374696f6e206d7573742062652063616c6c6564207468726f7567682060008201527f6163746976652070726f78790000000000000000000000000000000000000000602082015250565b600062001700602c83620015f9565b91506200170d82620016a2565b604082019050919050565b600060208201905081810360008301526200173381620016f1565b9050919050565b7f555550535570677261646561626c653a206d757374206e6f742062652063616c60008201527f6c6564207468726f7567682064656c656761746563616c6c0000000000000000602082015250565b600062001798603883620015f9565b9150620017a5826200173a565b604082019050919050565b60006020820190508181036000830152620017cb8162001789565b9050919050565b6000604082019050620017e96000830185620015cb565b620017f8602083018462001248565b9392505050565b7f4e487b7100000000000000000000000000000000000000000000000000000000600052601160045260246000fd5b60006200183b82620011a7565b91507fffffffffffffffffffffffffffffffffffffffffffffffffffffffffffffffff820362001870576200186f620017ff565b5b600182019050919050565b7f496e697469616c697a61626c653a20636f6e747261637420697320616c72656160008201527f647920696e697469616c697a6564000000000000000000000000000000000000602082015250565b6000620018d9602e83620015f9565b9150620018e6826200187b565b604082019050919050565b600060208201905081810360008301526200190c81620018ca565b9050919050565b6000819050919050565b600060ff82169050919050565b6000819050919050565b6000620019556200194f620019498462001913565b6200192a565b6200191d565b9050919050565b620019678162001934565b82525050565b60006020820190506200198460008301846200195c565b92915050565b7f4e487b7100000000000000000000000000000000000000000000000000000000600052603260045260246000fd5b7f4f776e61626c653a206e6577206f776e657220697320746865207a65726f206160008201527f6464726573730000000000000000000000000000000000000000000000000000602082015250565b600062001a17602683620015f9565b915062001a2482620019b9565b604082019050919050565b6000602082019050818103600083015262001a4a8162001a08565b9050919050565b62001a5c81620014a1565b811462001a6857600080fd5b50565b60008151905062001a7c8162001a51565b92915050565b60006020828403121562001a9b5762001a9a6200119d565b5b600062001aab8482850162001a6b565b91505092915050565b7f45524331393637557067726164653a206e657720696d706c656d656e7461746960008201527f6f6e206973206e6f742055555053000000000000000000000000000000000000602082015250565b600062001b12602e83620015f9565b915062001b1f8262001ab4565b604082019050919050565b6000602082019050818103600083015262001b458162001b03565b9050919050565b7f45524331393637557067726164653a20756e737570706f727465642070726f7860008201527f6961626c65555549440000000000000000000000000000000000000000000000602082015250565b600062001baa602983620015f9565b915062001bb78262001b4c565b604082019050919050565b6000602082019050818103600083015262001bdd8162001b9b565b9050919050565b7f4f776e61626c653a2063616c6c6572206973206e6f7420746865206f776e6572600082015250565b600062001c1c602083620015f9565b915062001c298262001be4565b602082019050919050565b6000602082019050818103600083015262001c4f8162001c0d565b9050919050565b7f496e697469616c697a61626c653a20636f6e7472616374206973206e6f74206960008201527f6e697469616c697a696e67000000000000000000000000000000000000000000602082015250565b600062001cb4602b83620015f9565b915062001cc18262001c56565b604082019050919050565b6000602082019050818103600083015262001ce78162001ca5565b9050919050565b7f455243313936373a206e657720696d706c656d656e746174696f6e206973206e60008201527f6f74206120636f6e747261637400000000000000000000000000000000000000602082015250565b600062001d4c602d83620015f9565b915062001d598262001cee565b604082019050919050565b6000602082019050818103600083015262001d7f8162001d3d565b9050919050565b600081519050919050565b600081905092915050565b60005b8381101562001dbc57808201518184015260208101905062001d9f565b60008484015250505050565b600062001dd58262001d86565b62001de1818562001d91565b935062001df381856020860162001d9c565b80840191505092915050565b600062001e0d828462001dc8565b915081905092915050565b7f416464726573733a2063616c6c20746f206e6f6e2d636f6e7472616374000000600082015250565b600062001e50601d83620015f9565b915062001e5d8262001e18565b602082019050919050565b6000602082019050818103600083015262001e838162001e41565b9050919050565b600081519050919050565b600062001ea28262001e8a565b62001eae8185620015f9565b935062001ec081856020860162001d9c565b62001ecb81620012e3565b840191505092915050565b6000602082019050818103600083015262001ef2818462001e95565b90509291505056fe60806040523480156200001157600080fd5b506040516200192d3803806200192d8339818101604052810190620000379190620001c0565b816000819055508061016c60006101000a81548173ffffffffffffffffffffffffffffffffffffffff021916908373ffffffffffffffffffffffffffffffffffffffff16021790555061016c60009054906101000a900473ffffffffffffffffffffffffffffffffffffffff1661016b60006101000a81548173ffffffffffffffffffffffffffffffffffffffff021916908373ffffffffffffffffffffffffffffffffffffffff1602179055506000600160006101000a81548160ff021916908360038111156200010e576200010d62000207565b5b0217905550505062000236565b600080fd5b6000819050919050565b620001358162000120565b81146200014157600080fd5b50565b60008151905062000155816200012a565b92915050565b600073ffffffffffffffffffffffffffffffffffffffff82169050919050565b600062000188826200015b565b9050919050565b6200019a816200017b565b8114620001a657600080fd5b50565b600081519050620001ba816200018f565b92915050565b60008060408385031215620001da57620001d96200011b565b5b6000620001ea8582860162000144565b9250506020620001fd85828601620001a9565b9150509250929050565b7f4e487b7100000000000000000000000000000000000000000000000000000000600052602160045260246000fd5b6116e780620002466000396000f3fe608060405234801561001057600080fd5b506004361061009e5760003560e01c8063af640d0f11610066578063af640d0f14610149578063bb41ad3f14610167578063c19d93fb14610183578063d30895e4146101a1578063fa12d782146101bf5761009e565b80633264a34b146100a357806359a5f12d146100c157806373da64a0146100df5780638086a92a146100fb5780638b2999031461012b575b600080fd5b6100ab6101c9565b6040516100b89190610f1f565b60405180910390f35b6100c9610282565b6040516100d69190610f4a565b60405180910390f35b6100f960048036038101906100f49190610f96565b6102a9565b005b61011560048036038101906101109190610ff9565b6104b2565b6040516101229190610f4a565b60405180910390f35b6101336104fd565b6040516101409190610f4a565b60405180910390f35b610151610524565b60405161015e9190611048565b60405180910390f35b610181600480360381019061017c919061109c565b61052a565b005b61018b610943565b6040516101989190611166565b60405180910390f35b6101a9610956565b6040516101b69190610f4a565b60405180910390f35b6101c761097d565b005b6101d1610d54565b6002601380602002604051908101604052809291906000905b8282101561027957838260130201601380602002604051908101604052809291908260138015610265576020028201915b8160009054906101000a900473ffffffffffffffffffffffffffffffffffffffff1673ffffffffffffffffffffffffffffffffffffffff168152602001906001019080831161021b575b5050505050815260200190600101906101ea565b50505050905090565b61016d60009054906101000a900473ffffffffffffffffffffffffffffffffffffffff1681565b600160038111156102bd576102bc6110ef565b5b600160009054906101000a900460ff1660038111156102df576102de6110ef565b5b1461031f576040517f08c379a0000000000000000000000000000000000000000000000000000000008152600401610316906111de565b60405180910390fd5b600073ffffffffffffffffffffffffffffffffffffffff1661016d60009054906101000a900473ffffffffffffffffffffffffffffffffffffffff1673ffffffffffffffffffffffffffffffffffffffff16146103b1576040517f08c379a00000000000000000000000000000000000000000000000000000000081526004016103a89061124a565b60405180910390fd5b61016c60009054906101000a900473ffffffffffffffffffffffffffffffffffffffff1673ffffffffffffffffffffffffffffffffffffffff168173ffffffffffffffffffffffffffffffffffffffff1603610442576040517f08c379a0000000000000000000000000000000000000000000000000000000008152600401610439906112b6565b60405180910390fd5b8061016d60006101000a81548173ffffffffffffffffffffffffffffffffffffffff021916908373ffffffffffffffffffffffffffffffffffffffff1602179055506002600160006101000a81548160ff021916908360038111156104aa576104a96110ef565b5b021790555050565b600282601381106104c257600080fd5b6013020181601381106104d457600080fd5b016000915091509054906101000a900473ffffffffffffffffffffffffffffffffffffffff1681565b61016b60009054906101000a900473ffffffffffffffffffffffffffffffffffffffff1681565b60005481565b6002600381111561053e5761053d6110ef565b5b600160009054906101000a900460ff1660038111156105605761055f6110ef565b5b146105a0576040517f08c379a000000000000000000000000000000000000000000000000000000000815260040161059790611322565b60405180910390fd5b8073ffffffffffffffffffffffffffffffffffffffff1661016b60009054906101000a900473ffffffffffffffffffffffffffffffffffffffff1673ffffffffffffffffffffffffffffffffffffffff1614610631576040517f08c379a00000000000000000000000000000000000000000000000000000000081526004016106289061138e565b60405180910390fd5b60138360ff16108015610647575060138260ff16105b610686576040517f08c379a000000000000000000000000000000000000000000000000000000000815260040161067d906113fa565b60405180910390fd5b600073ffffffffffffffffffffffffffffffffffffffff1660028460ff16601381106106b5576106b461141a565b5b601302018360ff16601381106106ce576106cd61141a565b5b0160009054906101000a900473ffffffffffffffffffffffffffffffffffffffff1673ffffffffffffffffffffffffffffffffffffffff1614610746576040517f08c379a000000000000000000000000000000000000000000000000000000000815260040161073d90611495565b60405180910390fd5b8060028460ff166013811061075e5761075d61141a565b5b601302018360ff16601381106107775761077661141a565b5b0160006101000a81548173ffffffffffffffffffffffffffffffffffffffff021916908373ffffffffffffffffffffffffffffffffffffffff1602179055506107bf81610ab0565b156107f4576003600160006101000a81548160ff021916908360038111156107ea576107e96110ef565b5b021790555061093e565b61016c60009054906101000a900473ffffffffffffffffffffffffffffffffffffffff1673ffffffffffffffffffffffffffffffffffffffff1661016b60009054906101000a900473ffffffffffffffffffffffffffffffffffffffff1673ffffffffffffffffffffffffffffffffffffffff16036108d75761016d60009054906101000a900473ffffffffffffffffffffffffffffffffffffffff1661016b60006101000a81548173ffffffffffffffffffffffffffffffffffffffff021916908373ffffffffffffffffffffffffffffffffffffffff16021790555061093d565b61016c60009054906101000a900473ffffffffffffffffffffffffffffffffffffffff1661016b60006101000a81548173ffffffffffffffffffffffffffffffffffffffff021916908373ffffffffffffffffffffffffffffffffffffffff1602179055505b5b505050565b600160009054906101000a900460ff1681565b61016c60009054906101000a900473ffffffffffffffffffffffffffffffffffffffff1681565b61016c60009054906101000a900473ffffffffffffffffffffffffffffffffffffffff1673ffffffffffffffffffffffffffffffffffffffff163373ffffffffffffffffffffffffffffffffffffffff1614610a0e576040517f08c379a0000000000000000000000000000000000000000000000000000000008152600401610a0590611501565b60405180910390fd5b60006003811115610a2257610a216110ef565b5b600160009054906101000a900460ff166003811115610a4457610a436110ef565b5b14610a84576040517f08c379a0000000000000000000000000000000000000000000000000000000008152600401610a7b9061156d565b60405180910390fd5b60018060006101000a81548160ff02191690836003811115610aa957610aa86110ef565b5b0217905550565b600080600090505b60138160ff161015610bfe5760005b60138160ff161015610bea578373ffffffffffffffffffffffffffffffffffffffff1660028360ff1660138110610b0157610b0061141a565b5b601302018260ff1660138110610b1a57610b1961141a565b5b0160009054906101000a900473ffffffffffffffffffffffffffffffffffffffff1673ffffffffffffffffffffffffffffffffffffffff1603610bd757610b6682826001600088610c09565b80610b7c5750610b7b82826000600188610c09565b5b80610b915750610b90828260018088610c09565b5b80610bc65750610bc5828260017fffffffffffffffffffffffffffffffffffffffffffffffffffffffffffffffff88610c09565b5b15610bd657600192505050610c04565b5b8080610be2906115bc565b915050610ac7565b508080610bf6906115bc565b915050610ab8565b50600090505b919050565b600080600190506000600190505b60048160000b13610d405760008682610c3091906115f2565b89610c3b919061162f565b905060008683610c4b91906115f2565b89610c56919061162f565b905060008260000b1280610c6d575060128260000b135b80610c7b575060008160000b125b80610c89575060128160000b135b80610d1157508573ffffffffffffffffffffffffffffffffffffffff1660028360ff1660138110610cbd57610cbc61141a565b5b601302018260ff1660138110610cd657610cd561141a565b5b0160009054906101000a900473ffffffffffffffffffffffffffffffffffffffff1673ffffffffffffffffffffffffffffffffffffffff1614155b15610d1d575050610d40565b8380610d28906115bc565b94505050508080610d3890611688565b915050610c17565b5060058160ff161491505095945050505050565b6040518061026001604052806013905b610d6c610d82565b815260200190600190039081610d645790505090565b604051806102600160405280601390602082028036833780820191505090505090565b600060139050919050565b600081905092915050565b6000819050919050565b600060139050919050565b600081905092915050565b6000819050919050565b600073ffffffffffffffffffffffffffffffffffffffff82169050919050565b6000610e1082610de5565b9050919050565b610e2081610e05565b82525050565b6000610e328383610e17565b60208301905092915050565b6000602082019050919050565b610e5481610dc5565b610e5e8184610dd0565b9250610e6982610ddb565b8060005b83811015610e9a578151610e818782610e26565b9650610e8c83610e3e565b925050600181019050610e6d565b505050505050565b6000610eae8383610e4b565b6102608301905092915050565b6000602082019050919050565b610ed181610da5565b610edb8184610db0565b9250610ee682610dbb565b8060005b83811015610f17578151610efe8782610ea2565b9650610f0983610ebb565b925050600181019050610eea565b505050505050565b6000612d2082019050610f356000830184610ec8565b92915050565b610f4481610e05565b82525050565b6000602082019050610f5f6000830184610f3b565b92915050565b600080fd5b610f7381610e05565b8114610f7e57600080fd5b50565b600081359050610f9081610f6a565b92915050565b600060208284031215610fac57610fab610f65565b5b6000610fba84828501610f81565b91505092915050565b6000819050919050565b610fd681610fc3565b8114610fe157600080fd5b50565b600081359050610ff381610fcd565b92915050565b600080604083850312156110105761100f610f65565b5b600061101e85828601610fe4565b925050602061102f85828601610fe4565b9150509250929050565b61104281610fc3565b82525050565b600060208201905061105d6000830184611039565b92915050565b600060ff82169050919050565b61107981611063565b811461108457600080fd5b50565b60008135905061109681611070565b92915050565b6000806000606084860312156110b5576110b4610f65565b5b60006110c386828701611087565b93505060206110d486828701611087565b92505060406110e586828701610f81565b9150509250925092565b7f4e487b7100000000000000000000000000000000000000000000000000000000600052602160045260246000fd5b6004811061112f5761112e6110ef565b5b50565b60008190506111408261111e565b919050565b600061115082611132565b9050919050565b61116081611145565b82525050565b600060208201905061117b6000830184611157565b92915050565b600082825260208201905092915050565b7f47616d65206973206e6f74204f70656e696e6700000000000000000000000000600082015250565b60006111c8601383611181565b91506111d382611192565b602082019050919050565b600060208201905081810360008301526111f7816111bb565b9050919050565b7f506c617965723220697320616c72656164792073657400000000000000000000600082015250565b6000611234601683611181565b915061123f826111fe565b602082019050919050565b6000602082019050818103600083015261126381611227565b9050919050565b7f506c61796572312063616e6e6f7420626520506c617965723200000000000000600082015250565b60006112a0601983611181565b91506112ab8261126a565b602082019050919050565b600060208201905081810360008301526112cf81611293565b9050919050565b7f47616d65206973206e6f7420706c6179696e6700000000000000000000000000600082015250565b600061130c601383611181565b9150611317826112d6565b602082019050919050565b6000602082019050818103600083015261133b816112ff565b9050919050565b7f4e6f7420796f7572207475726e00000000000000000000000000000000000000600082015250565b6000611378600d83611181565b915061138382611342565b602082019050919050565b600060208201905081810360008301526113a78161136b565b9050919050565b7f496e76616c696420636f6f7264696e6174657300000000000000000000000000600082015250565b60006113e4601383611181565b91506113ef826113ae565b602082019050919050565b60006020820190508181036000830152611413816113d7565b9050919050565b7f4e487b7100000000000000000000000000000000000000000000000000000000600052603260045260246000fd5b7f43656c6c20697320616c7265616479206f636375706965640000000000000000600082015250565b600061147f601883611181565b915061148a82611449565b602082019050919050565b600060208201905081810360008301526114ae81611472565b9050919050565b7f4e6f7420706c6179657231000000000000000000000000000000000000000000600082015250565b60006114eb600b83611181565b91506114f6826114b5565b602082019050919050565b6000602082019050818103600083015261151a816114de565b9050919050565b7f47616d65206973206e6f74204e6f6e6500000000000000000000000000000000600082015250565b6000611557601083611181565b915061156282611521565b602082019050919050565b600060208201905081810360008301526115868161154a565b9050919050565b7f4e487b7100000000000000000000000000000000000000000000000000000000600052601160045260246000fd5b60006115c782611063565b915060ff82036115da576115d961158d565b5b600182019050919050565b60008160000b9050919050565b60006115fd826115e5565b9150611608836115e5565b9250828202611616816115e5565b91508082146116285761162761158d565b5b5092915050565b600061163a826115e5565b9150611645836115e5565b925082820190507fffffffffffffffffffffffffffffffffffffffffffffffffffffffffffffff808112607f821317156116825761168161158d565b5b92915050565b6000611693826115e5565b9150607f82036116a6576116a561158d565b5b60018201905091905056fea2646970667358221220725d792417ca89815ad5a701824e5e4c9fd78fce4ecae589007a0d6a663971f364736f6c63430008130033416464726573733a206c6f772d6c6576656c2064656c65676174652063616c6c206661696c6564a2646970667358221220e8663d1a2cb9cc10335ee80f9e0b92b9f7829e0bdd035cfaac6df8b30a67652e64736f6c63430008130033",
  "linkReferences": {},
  "deployedLinkReferences": {}
}